:100000000C9463000C948B000C948B000C940606EB
:100010000C9406060C9406060C948B000C948B0032
:100020000C948B000C948B000C948B000C944A0560
:100030000C948B000C948B000C948B000C948B0014
:100040000C94A8040C948B000C9418050C94F204E6
:100050000C948B000C948B000C948B000C948B00F4
:100060000C948B000C948B000000000024002700EF
:100070002A0000000008000201000003040700003D
:1000800000000000000000000000230026002900FE
:1000900000000000250028002B00040404040404D0
:1000A0000404020202020202030303030303010227
:1000B00004081020408001020408102001020408F6
:1000C00010207E06920911241FBECFEFD8E0DEBFBC
:1000D000CDBF11E0A0E0B1E0ECE3F4E102C0059097
:1000E0000D92AA32B107D9F722E0AAE2B1E001C02D
:1000F0001D92AC36B207E1F710E0C2E6D0E004C0D2
:100100002197FE010E940B0AC136D107C9F70E9450
:100110005D070C94110A0C94000090E0FC01EE586D
:10012000FF4F2491FC01E255FF4F3491FC01E6564C
:10013000FF4FE491EE23C9F0222339F0233001F17F
:10014000A8F4213019F1223029F1F0E0EE0FFF1F61
:10015000E057FF4FA591B4918FB7F894EC916111DE
:1001600026C030953E233C938FBF08952730A9F0D9
:100170002830C9F0243049F7809180008F7D03C07A
:10018000809180008F7780938000DFCF84B58F7758
:1001900084BDDBCF84B58F7DFBCF8091B0008F779E
:1001A0008093B000D2CF8091B0008F7DF9CF3E2BED
:1001B000DACFCF93DF9390E0FC01E255FF4F24911B
:1001C00086569F4FFC0184918823D1F090E0880FE0
:1001D000991FFC01E859FF4FA591B491FC01E0572C
:1001E000FF4FC591D49161110EC09FB7F8948C91C7
:1001F000E22FE0958E238C932881E223E8839FBF32
:10020000DF91CF9108958FB7F894EC91E22BEC93A6
:100210008FBFF6CF3FB7F89480917D0190917E011A
:10022000A0917F01B091800126B5A89B05C02F3F0A
:1002300019F00196A11DB11D3FBFBA2FA92F982F0C
:100240008827BC01CD01620F711D811D911D42E007
:10025000660F771F881F991F4A95D1F708958F92CF
:100260009F92AF92BF92CF92DF92EF92FF924B019B
:100270005C010E940A016B017C010E940A016C1959
:100280007D098E099F09683E734081059105A8F399
:1002900021E0821A9108A108B10888EEC80E83E017
:1002A000D81EE11CF11C81149104A104B10429F7AA
:1002B000FF90EF90DF90CF90BF90AF909F908F9086
:1002C0000895AF92BF92CF92DF92EF92FF920F9379
:1002D0001F93CF93DF936C017B018B01040F151FDC
:1002E000EB015E01AE18BF08C017D10759F0699144
:1002F000D601ED91FC910190F081E02DC6010995A8
:10030000892B79F7C501DF91CF911F910F91FF9054
:10031000EF90DF90CF90BF90AF900895FC01538D88
:10032000448D252F30E0842F90E0821B930B5417CF
:1003300010F0CF96089501970895FC01918D828D5C
:10034000981761F0A28DAE0FBF2FB11D5D968C91F5
:10035000928D9F5F9F73928F90E008958FEF9FEF34
:100360000895FC01918D828D981731F0828DE80FF0
:10037000F11D858D90E008958FEF9FEF0895FC01AA
:10038000918D228D892F90E0805C9F4F821B910977
:100390008F739927089585E891E00E94BF0121E0BD
:1003A000892B09F420E0822F089580E090E0892BCA
:1003B00029F00E94CB0181110C9400000895FC01EA
:1003C000A48DA80FB92FB11DA35ABF4F2C91848DB6
:1003D00090E001968F739927848FA689B7892C9313
:1003E000A089B1898C91837080648C93938D848D66
:1003F000981306C00288F389E02D80818F7D808369
:100400000895EF92FF920F931F93CF93DF93EC0128
:1004100081E0888F9B8D8C8D98131AC0E889F989AB
:10042000808185FF15C09FB7F894EE89FF896083AE
:10043000E889F98980818370806480839FBF81E02F
:1004400090E0DF91CF911F910F91FF90EF90089571
:10045000F62E0B8D10E00F5F1F4F0F731127E02E4C
:100460008C8D8E110CC00FB607FCFACFE889F98984
:10047000808185FFF5CFCE010E94DF01F1CFEB8DAA
:10048000EC0FFD2FF11DE35AFF4FF0829FB7F89458
:100490000B8FEA89FB8980818062CFCFCF93DF9376
:1004A000EC01888D8823B9F0AA89BB89E889F9898C
:1004B0008C9185FD03C0808186FD0DC00FB607FCC1
:1004C000F7CF8C9185FFF2CF808185FFEDCFCE01F4
:1004D0000E94DF01E9CFDF91CF9108958F929F9223
:1004E000AF92BF92FF920F931F93CF93DF93FC01C4
:1004F0006F3F760711F470E060E0F0808BE08F15BD
:1005000008F44AC0828108E512E0081B110987FD42
:100510001395000F111F000F111F8181C8E8D0E053
:10052000C81BD10987FDD395CC0FDD1FCC0FDD1F74
:100530004E010D2E000CAA08BB089801012E000CDC
:10054000440B550B281939094A095B09DB010E9444
:10055000C60924EB30E040E050E00E949C09820E86
:10056000931EA41EB51E8C169D062CF0E801801665
:1005700091060CF4E4012297CC0FDD1F2FB7F894FD
:100580008F2D90E0FC01EE0FFF1FE80FF91FEE5DCD
:10059000FD4FD283C1832FBFDF91CF911F910F9168
:1005A000FF90BF90AF909F908F9008951F93CF932F
:1005B000DF93EC01162F88818C3008F04EC061E08B
:1005C000812F0E94D9008881282F30E0F901EE0F99
:1005D000FF1FE20FF31FEE5DFD4F1F736081607C14
:1005E000612B608319821A822CE0622F0E94FF091E
:1005F000829FB001112430E020E0AB01420F531F75
:10060000FA01EE0FFF1FE40FF51FEE5DFD4F908125
:1006100096FD16C02F5F3F4F2C30310571F78111C9
:100620000FC01092800082E08093810010928500BC
:1006300010928400B19A80916F00826080936F0065
:10064000E8818E2F90E0FC01EE0FFF1FE80FF91FED
:10065000EE5DFD4F8081806480838881DF91CF9142
:100660001F91089520918301309184012817390743
:1006700071F49091810180918201981741F0E0918D
:100680008101F0E0E65DFE4F808190E008958FEFFC
:100690009FEF08950895EF92FF920F931F93CF93CA
:1006A000DF93DC015C96ED90FC905D97E114F10422
:1006B00079F481E090E013969C938E93129790E0EA
:1006C00080E0DF91CF911F910F91FF90EF900895FF
:1006D0005196ED91FC91529750968C915097982F8E
:1006E00090950FB75E962C915E97122F127021FD98
:1006F0006095F8942081112319F1282B2083E701BC
:100700002197F1F728E0462F50E0308160FF1AC0B2
:10071000382B3083E7012197F1F7BA01759567957A
:10072000215089F7112381F08081892380830FBFB5
:100730005C968D919C910197F1F781E090E0C1CF9B
:100740002923DCCF3923E5CF9081892BEFCF20916E
:100750008301309184012817390761F48091820167
:100760002091810190E0805C9F4F821B91098F73E3
:100770009927089590E080E00895209183013091B9
:10078000840128173907B9F4909181018091820181
:10079000981789F0E0918101F0E0E65DFE4F8081DD
:1007A0002091810130E02F5F3F4F2F73332720933B
:1007B000810190E008958FEF9FEF0895E09183010C
:1007C000F0918401E817F90769F4A389B4899C9131
:1007D0008589809589238C931092840110928301DE
:1007E00081E0089580E00895809167029091680209
:1007F000892B31F1809183019091840122E08D3425
:100800009207F1F0009711F00E94DE0380916B02D5
:100810008E7F80936B0210928201109281018DE491
:1008200092E09093840180938301E0916002F091C3
:100830006102808190916202892B808381E008951A
:1008400080E008951092680210926702109266028A
:100850001092650210926402109263028DE991E099
:1008600090936A028093690290915902963108F040
:1008700046C02DEB30E030936402209363022BE9F5
:1008800031E030936602209365022CE231E0309330
:100890006802209367022091680084E0983048F055
:1008A00031E09E3008F430E081E001C0880F3A95D5
:1008B000EAF7822B809368002DE630E0983050F004
:1008C0002BE630E09E3030F02CE630E0963110F030
:1008D00030E020E03093610220936002292F30E065
:1008E000983078F481E001C0880F9A95EAF78093F8
:1008F00062028091690290916A020197F1F70C946B
:10090000F4039E3040F42850310981E001C0880F83
:100910002A95EAF7ECCF2E503109F7CF90E080E02E
:10092000089542E050E064E271E085E891E00C94C3
:100930006101CF93DF93682F85E891E00E94010267
:10094000EC010E9491048C0F9D1FDF91CF910895BF
:100950001F920F920FB60F9211242F933F938F93F4
:100960009F93AF93BF938091790190917A01A09169
:100970007B01B0917C013091780123E0230F2D376A
:1009800058F50196A11DB11D20937801809379013E
:1009900090937A01A0937B01B0937C0180917D01BB
:1009A00090917E01A0917F01B09180010196A11DDF
:1009B000B11D80937D0190937E01A0937F01B09340
:1009C0008001BF91AF919F918F913F912F910F9097
:1009D0000FBE0F901F90189526E8230F0296A11DB9
:1009E000B11DD2CF1F920F920FB60F9211242F93E9
:1009F0003F934F935F936F937F938F939F93AF93A7
:100A0000BF93EF93FF9385E891E00E94DF01FF9190
:100A1000EF91BF91AF919F918F917F916F915F9176
:100A20004F913F912F910F900FBE0F901F901895EF
:100A30001F920F920FB60F9211242F938F939F93B3
:100A4000EF93FF93E0919501F09196018081E09101
:100A50009B01F0919C0182FD1BC0908180919E01C1
:100A60008F5F8F7320919F01821741F0E0919E016B
:100A7000F0E0EB57FE4F958F80939E01FF91EF9131
:100A80009F918F912F910F900FBE0F901F901895EF
:100A90008081F4CF1F920F920FB60F9211242F93E3
:100AA0003F934F935F936F937F938F939F93AF93F6
:100AB000BF93CF93DF93EF93FF9380916A01C0912F
:100AC0004602D0E087FF24C0109285001092840077
:100AD00080916A018F5F80936A0180916A01082E7C
:100AE000000C990B8C179D0724F480916A018C30BF
:100AF000C4F18091840090918500049680349C49D3
:100B000008F47AC08091840090918500049676C0A4
:100B100080916A01082E000C990B8C179D07C4F672
:100B2000E0916A018E2FEE0F990BFC01EE0FFF1F73
:100B3000E80FF91FEE5DFD4F808186FFC9CFE09180
:100B40006A018E2FEE0F990BFC01EE0FFF1FE80FCD
:100B5000F91FEE5DFD4F808160E08F730E948D0074
:100B6000B7CF2091840030918500E0916A018E2FEB
:100B7000EE0F990BFC01EE0FFF1FE80FF91FEE5D62
:100B8000FD4F81819281820F931F90938900809302
:100B90008800E0916A018E2FEE0F990BFC01EE0F99
:100BA000FF1FE80FF91FEE5DFD4F808186FF11C02A
:100BB000E0916A018E2FEE0F990BFC01EE0FFF1FE3
:100BC000E80FF91FEE5DFD4F808161E08F730E9499
:100BD0008D00FF91EF91DF91CF91BF91AF919F91E8
:100BE0008F917F916F915F914F913F912F910F90D6
:100BF0000FBE0F901F90189580E49CE99093890098
:100C0000809388008FEF80936A01E3CF1F920F9249
:100C10000FB60F9211242F933F934F935F936F93CF
:100C20007F938F939F93AF93BF93EF93FF93E09145
:100C30008301F0918401309749F0A685B7858585B9
:100C4000968D91FF14C09C918923A1F4FF91EF919F
:100C5000BF91AF919F918F917F916F915F914F91D4
:100C60003F912F910F900FBE0F901F9018959C9160
:100C7000892361F7A389B4899C918589809589230B
:100C80008C93868997890197F1F7608D718DA68580
:100C9000B785558538E020E0CB010197F1F7822F29
:100CA00090E095958795282F4C91452309F0206871
:100CB000315091F7868D81FD20958091820190E0E1
:100CC00001968F73992730918101381799F0A0917F
:100CD0008201B0E0A65DBE4F2C9380938201828D8D
:100CE000938D0197F1F7A389B4898C919589892B0C
:100CF0008C93ACCF868D8160868FF1CF1092880166
:100D00001092870188EE93E0A0E0B0E08093890123
:100D100090938A01A0938B01B0938C0124E031E081
:100D2000309386012093850125EC30E030939201C9
:100D30002093910124EC30E03093940120939301AF
:100D400020EC30E0309396012093950121EC30E0C7
:100D5000309398012093970122EC30E030939A0170
:100D60002093990126EC30E030939C0120939B0165
:100D700010929E0110929F011092A0011092A10169
:100D80001092500210924F0280935102909352029F
:100D9000A0935302B093540286E191E090934E02E7
:100DA00080934D02109264021092630210926602C8
:100DB00010926502109268021092670210926A0205
:100DC0001092690260916B026E7F6D7F60936B027F
:100DD0006695617081E068278BE00E948D0061E07C
:100DE0008BE00E94D900E9EBF0E0E491E0935D0232
:100DF000E5EAF0E0E491F0E0EE0FFF1FE057FF4F6F
:100E00008591949190935F0280935E0260E08AE006
:100E10000E94D90080916B0281FD04C061E08AE0EC
:100E20000E948D008AE080935902E8EBF0E0E491A3
:100E3000E0935A02E4EAF0E0E491F0E0EE0FFF1FE5
:100E4000EA57FF4F8591949190935C0280935B02E7
:100E5000809146028C3048F591E0980F90934602BD
:100E600080934A0290E0FC01EE0FFF1FE80FF91F8C
:100E7000EE5DFD4F88EB9BE092838183809146027B
:100E80008C30B8F491E0980F90934602809347021B
:100E900090E0FC01EE0FFF1FE80FF91FEE5DFD4F24
:100EA00088EB9BE09283818308958FEF80934A02C1
:100EB000E5CF8FEF809347020895789484B58260E0
:100EC00084BD84B5816084BD85B5826085BD85B5EE
:100ED000816085BD80916E00816080936E0010926C
:100EE00081008091810082608093810080918100E7
:100EF0008160809381008091800081608093800078
:100F00008091B10084608093B1008091B0008160D5
:100F10008093B00080917A00846080937A00809101
:100F20007A00826080937A0080917A008160809359
:100F30007A0080917A00806880937A001092C100D4
:100F4000E0919501F091960182E08083E09191011A
:100F5000F091920181E08083E0919301F0919401FE
:100F600085E1808310929D01E0919901F0919A01B1
:100F700086E08083E0919701F09198018081806103
:100F80008083E0919701F09198018081886080834F
:100F9000E0919701F0919801808180688083E091D1
:100FA0009701F091980180818F7D80830E942204B7
:100FB0000E94F4036AE070E080E090E00E942F015C
:100FC00065EA8DE492E00E944B0361E08DE492E0DB
:100FD0000E944B0366EA8DE492E00E944B0366E0B8
:100FE00070E08AE492E00E94D60269E070E087E453
:100FF00092E00E94D60261E082E00E94D90061E0A6
:1010000083E00E94D90061E084E00E94D900C0E042
:10101000D0E011E085E891E00E949D01082F8DE469
:1010200092E00E94A7037C01892B19F18DE492E0E4
:101030000E94BD0390917701E92FF0E0E459FE4F43
:101040008083911105C080916C018A3509F0B5C08B
:101050009F5F9B3058F4909377018091770188309F
:10106000F1F61092770110936B01D9CF10927701AE
:10107000F4CF80916B01882309F49FC010926B011B
:10108000ECE6F1E080E09191890F91E0E337F90718
:10109000D1F790917301891390C0209170019091C4
:1010A000710180917201921710F4821718F00237C3
:1010B00009F08EC08DE492E00E94DE0361E082E0E0
:1010C0000E948D0060E083E00E948D0060E084E07B
:1010D0000E948D0082E50E94990469E070E087E437
:1010E00092E00E94D6026FE070E080E090E00E9403
:1010F0002F016AE570E087E492E00E946E0264EFDF
:1011000071E080E090E00E942F0166E070E08AE4E8
:1011100092E00E94D602B7018AE492E00E946E0239
:101120006FE070E080E090E00E942F018FEFE81AFE
:10113000F80A95E6E916F10471F768E873E180E0D2
:1011400090E00E942F0174E6E72EF12CB7018AE4AB
:1011500092E00E946E026FE070E080E090E00E94FA
:101160002F0181E0E81AF10888F76CEB72E080E06B
:1011700090E00E942F0170E060E087E492E00E941E
:101180006E026FE070E080E090E00E942F01E0913D
:101190004A028E2F90E0FC01EE0FFF1FE80FF91FAF
:1011A000EE5DFD4F80818F7B808360ED77E080E096
:1011B00090E00E942F010E942204209709F42ACF78
:1011C0000E94CB01882309F425CF0E94000022CF82
:1011D000291710F4891718F0073609F044C087E47E
:1011E0000E94990460E082E00E948D0061E083E04B
:1011F0000E948D0060E084E00E948D0069E070E054
:1012000087E492E00E94D6026FE070E080E090E018
:101210000E942F016AE570E087E492E00E946E026E
:101220006FE070E080E090E00E942F01E0914A02C0
:101230008E2F90E0FC01EE0FFF1FE80FF91FEE5D0F
:10124000FD4F80818F7B8083E09147028E2F90E05D
:10125000FC01EE0FFF1FE80FF91FEE5DFD4F8081CF
:101260008F7B8083AACF281710F4981710F00236CE
:10127000F1F482E40E94990460E082E00E948D0013
:1012800060E083E00E948D0061E084E00E948D00B8
:1012900069E070E087E492E00E94D6026FE070E0BF
:1012A00080E090E00E942F0170E060E0B5CF0E94E6
:1012B000220441E050E067E271E085E891E00E949D
:1012C00061010E94910460E082E00E948D0060E074
:1012D00083E00E948D0060E084E00E948D00E09138
:1012E0004A028E2F90E0FC01EE0FFF1FE80FF91F5E
:1012F000EE5DFD4F80818F7B8083E09147028E2FD2
:1013000090E0FC01EE0FFF1FE80FF91FEE5DFD4FAF
:1013100080818F7B80836FE070E080E090E00E94AE
:101320002F014BCF86E191E090934E0280934D02C6
:101330008DE492E00C94DE03052E97FB1EF40094DE
:101340000E94B30957FD07D00E94CE0907FC03D0C5
:101350004EF40C94B30950954095309521953F4F2C
:101360004F4F5F4F089590958095709561957F4F91
:101370008F4F9F4F08950E94F009A59F900DB49F35
:10138000900DA49F800D911D11240895B7FF0C941A
:10139000BB090E94BB09821B930B0895A1E21A2E80
:1013A000AA1BBB1BFD010DC0AA1FBB1FEE1FFF1F09
:1013B000A217B307E407F50720F0A21BB30BE40B59
:1013C000F50B661F771F881F991F1A9469F76095A0
:1013D0007095809590959B01AC01BD01CF0108955A
:1013E000A29FB001B39FC001A39F700D811D112466
:1013F000911DB29F700D811D1124911D0895991B9F
:1014000079E004C0991F961708F0961B881F7A95FB
:10141000C9F780950895EE0FFF1F0590F491E02D18
:10142000099410E0C2E6D0E004C0FE010E940B0A5D
:0C1430002196C336D107C9F7F894FFCF0E
:10143C0000000000010261018E014E02BF019D01FE
:10144C00B101000000004B0361018E044A03A703A5
:0A145C00BD0332030D0A006E00000C
:00000001FF
